8=FIX.4.2|9=74|35=A|34=1|49=CLIENT|52=20140729-14:47:23.397|56=PELYNCH|98=0|108=30|141=Y|10=015|
8=FIX.4.2|9=74|35=A|34=1|49=PELYNCH|52=20140729-14:47:23.729|56=CLIENT|98=0|108=30|141=Y|10=014|
8=FIX.4.2|9=288|35=D|34=2|49=CLIENT|52=20140729-14:47:23.696|56=PELYNCH|11=d66aa8ac-fe70-4c89-a823-e2a5b20bd501|15=EUR|21=1|22=4|38=111|40=2|44=5.2|48=FR0000121014|54=1|55=FR0000121014_symbol|59=0|60=20140729-14:47:23.693|100=PA|6171=0|6350=1|7400=20140729-07:00:00.661|7401=20140729-15:30:00.680|7803=0|10=088|
8=FIX.4.2|9=226|35=D|34=3|49=CLIENT|52=20140729-14:47:23.698|56=PELYNCH|11=98bda50f-19a1-4901-8ec8-f7e9dd84b3a6|15=DKK|21=1|22=4|38=222|40=2|44=56|48=DK0010234467|54=1|55=DK0010234467_symbol|59=0|60=20140729-14:47:23.696|100=CO|6171=0|7803=0|10=114|
8=FIX.4.2|9=256|35=D|34=4|49=CLIENT|52=20140729-14:47:23.700|56=PELYNCH|11=bc1485f9-936b-45f0-84cc-ba61452b2704|15=SEK|21=1|22=4|38=2000|40=1|48=GB0009895292|54=1|55=GB0009895292_symbol|59=0|60=20140729-14:47:23.698|100=ST|6064=20|6171=0|7400=20140729-07:30:00.698|7803=1|10=200|
8=FIX.4.2|9=220|35=D|34=5|49=CLIENT|52=20140729-14:47:23.702|56=PELYNCH|11=519fca38-fc2e-4789-83ac-b0b2139533c9|15=EUR|21=1|22=4|38=111|40=1|48=FR0000121014|54=1|55=FR0000121014_symbol|59=0|60=20140729-14:47:23.700|100=PA|6171=0|7803=0|10=213|
8=FIX.4.2|9=280|35=D|34=6|49=CLIENT|52=20140729-14:47:23.704|56=PELYNCH|11=3eb6c405-286e-48d5-a48a-08141be47144|15=DKK|21=1|22=4|38=222|40=2|44=33|48=DK0010234467|54=1|55=DK0010234467_symbol|59=0|60=20140729-14:47:23.702|100=CO|6171=0|7400=20140729-07:00:00.702|7401=20140729-14:55:00.702|7803=0|10=240|
8=FIX.4.2|9=235|35=D|34=7|49=CLIENT|52=20140729-14:47:23.706|56=PELYNCH|11=5218b0b3-c60b-4b89-ac3b-3e94f6f50731|15=EUR|21=1|22=4|38=1919|40=2|44=86|48=BE0003820371|54=2|55=BE0003820371_symbol|59=0|60=20140729-14:47:23.704|100=BR|6064=30|6171=0|7803=1|10=157|
8=FIX.4.2|9=250|35=D|34=8|49=CLIENT|52=20140729-14:47:23.708|56=PELYNCH|11=cbe803cb-5536-4cd8-acf7-3b15413d1da9|15=GBp|21=1|22=4|38=7550|40=2|44=3.6|48=GB0033711010|54=2|55=GB0033711010_symbol|59=0|60=20140729-14:47:23.706|100=L|6064=25|6067=15|6171=0|6350=1|7803=1|10=196|
8=FIX.4.2|9=270|35=D|34=9|49=CLIENT|52=20140729-14:47:23.710|56=PELYNCH|11=ea195e68-d9bb-44b4-8660-e144eb78827e|15=EUR|21=1|22=4|38=300|40=2|44=495|48=BE0003678894|54=2|55=BE0003678894_symbol|59=0|60=20140729-14:47:23.708|100=BR|6064=35|6067=30|6171=0|7400=20140729-07:01:00.708|7803=1|10=135|
8=FIX.4.2|9=282|35=D|34=10|49=CLIENT|52=20140729-14:47:23.712|56=PELYNCH|11=e7041270-a016-4542-8db5-76629beb201d|15=SEK|21=1|22=4|38=4100|40=2|44=56|48=SE0000101032|54=1|55=SE0000101032_symbol|59=0|60=20140729-14:47:23.710|100=ST|6171=0|7400=20140729-07:01:00.710|7401=20140729-15:25:00.710|7803=0|10=025|
8=FIX.4.2|9=291|35=D|34=11|49=CLIENT|52=20140729-14:47:23.714|56=PELYNCH|11=5c508fb0-8a30-4324-b5df-daaab58bc168|15=SEK|21=1|22=4|38=10800|40=2|44=6.3|48=SE0000202624|54=1|55=SE0000202624_symbol|59=0|60=20140729-14:47:23.712|100=ST|6171=0|6350=1|7400=20140729-07:01:00.712|7401=20140729-15:25:00.712|7803=0|10=240|
8=FIX.4.2|9=277|35=D|34=12|49=CLIENT|52=20140729-14:47:23.716|56=PELYNCH|11=73bcb8d7-d954-4d72-9bb3-864d99b821f9|15=SEK|21=1|22=4|38=11200|40=1|48=SE0000221723|54=1|55=SE0000221723_symbol|59=0|60=20140729-14:47:23.715|100=ST|6171=0|7400=20140729-07:01:00.714|7401=20140729-15:25:00.714|7803=0|10=030|
8=FIX.4.2|9=240|35=D|34=13|49=CLIENT|52=20140729-14:47:23.718|56=PELYNCH|11=68d4e629-9102-4577-b195-cdb1f09595d2|15=NOK|21=1|22=4|38=22520|40=2|44=89.15|48=BMG1190N1002|54=2|55=BMG1190N1002_symbol|59=0|60=20140729-14:47:23.717|100=OL|6064=11|6171=0|7803=0|10=123|
8=FIX.4.2|9=275|35=D|34=14|49=CLIENT|52=20140729-14:47:23.720|56=PELYNCH|11=fa1c61be-d2b9-4cb6-a055-0938fa49752b|15=NOK|21=1|22=4|38=90000|40=2|44=89.15|48=NO0010208051|54=1|55=NO0010208051_symbol|59=0|60=20140729-14:47:23.719|100=OL|6064=30|6067=25|6171=0|7400=20140729-06:54:31.718|7803=1|10=204|
8=FIX.4.2|9=239|35=D|34=15|49=CLIENT|52=20140729-14:47:23.722|56=PELYNCH|11=dbebc5ef-5628-4a4a-997a-164cb8d0c2c2|15=EUR|21=1|22=4|38=15000|40=1|48=NL0009103530|54=1|55=NL0009103530_symbol|59=0|60=20140729-14:47:23.721|100=AS|6064=25|6067=15|6171=0|7803=1|10=058|
8=FIX.4.2|9=285|35=D|34=16|49=CLIENT|52=20140729-14:47:23.724|56=PELYNCH|11=cc479aac-6321-4e02-87e5-a2c7c5a7dbca|15=EUR|21=1|22=4|38=8500|40=2|44=144.1|48=FI0009007835|54=2|55=FI0009007835_symbol|59=0|60=20140729-14:47:23.723|100=HE|6171=0|7400=20140729-07:02:00.722|7401=20140729-07:15:00.723|7803=4|10=046|
8=FIX.4.2|9=286|35=D|34=17|49=CLIENT|52=20140729-14:47:23.726|56=PELYNCH|11=86349e16-78da-48f3-abe5-b01b6e1f2ffd|15=NOK|21=1|22=4|38=79800|40=2|44=22.74|48=NO0010379266|54=2|55=NO0010379266_symbol|59=0|60=20140729-14:47:23.725|100=OL|6171=0|7400=20140729-07:02:23.725|7401=20140729-15:30:00.725|7803=0|10=131|
8=FIX.4.2|9=223|35=D|34=18|49=CLIENT|52=20140729-14:47:23.728|56=PELYNCH|11=9d35d274-9337-4486-906b-8a34537e748b|15=EUR|21=1|22=4|38=15000|40=1|48=NL0000335578|54=1|55=NL0000335578_symbol|59=0|60=20140729-14:47:23.727|100=AS|6171=0|7803=0|10=214|
8=FIX.4.2|9=239|35=D|34=19|49=CLIENT|52=20140729-14:47:23.730|56=PELYNCH|11=a8d7d3d7-87e1-4e8a-ae22-9e8901b147de|15=EUR|21=1|22=4|38=22609|40=1|48=BE0003884047|54=2|55=BE0003884047_symbol|59=0|60=20140729-14:47:23.729|100=BR|6064=16|6067=14|6171=0|7803=1|10=245|
8=FIX.4.2|9=273|35=D|34=20|49=CLIENT|52=20140729-14:47:23.732|56=PELYNCH|11=eaffade8-b725-436d-a102-39f5dc0d255c|15=NOK|21=1|22=4|38=77000|40=2|44=1.8|48=NO0003054108|54=1|55=NO0003054108_symbol|59=0|60=20140729-14:47:23.731|100=OL|6064=36|6067=28|6171=0|7400=20140729-07:03:58.731|7803=1|10=201|
8=FIX.4.2|9=238|35=D|34=21|49=CLIENT|52=20140729-14:47:23.734|56=PELYNCH|11=2e353071-8af9-464b-9f85-98e8f4109e4c|15=EUR|21=1|22=4|38=6000|40=1|48=BE0003793107|54=2|55=BE0003793107_symbol|59=0|60=20140729-14:47:23.733|100=BR|6064=35|6067=30|6171=0|7803=1|10=244|
8=FIX.4.2|9=238|35=D|34=22|49=CLIENT|52=20140729-14:47:23.736|56=PELYNCH|11=6b7596cc-2346-4b4c-9dd4-b7e2e3adb4d1|15=EUR|21=1|22=4|38=5000|40=1|48=NL0000009132|54=2|55=NL0000009132_symbol|59=0|60=20140729-14:47:23.735|100=AS|6064=27|6067=23|6171=0|7803=1|10=217|
8=FIX.4.2|9=238|35=D|34=23|49=CLIENT|52=20140729-14:47:23.738|56=PELYNCH|11=caeee1aa-3905-4e37-a900-6c6cd666f79b|15=EUR|21=1|22=4|38=5000|40=1|48=BE0003793107|54=2|55=BE0003793107_symbol|59=0|60=20140729-14:47:23.737|100=BR|6064=35|6067=30|6171=0|7803=1|10=213|
8=FIX.4.2|9=239|35=D|34=24|49=CLIENT|52=20140729-14:47:23.740|56=PELYNCH|11=d472ac8f-1b90-47d0-9098-1406d815d6a3|15=EUR|21=1|22=4|38=21000|40=1|48=NL0000379121|54=2|55=NL0000379121_symbol|59=0|60=20140729-14:47:23.739|100=AS|6064=26|6067=23|6171=0|7803=1|10=041|
8=FIX.4.2|9=283|35=D|34=25|49=CLIENT|52=20140729-14:47:23.742|56=PELYNCH|11=87d2486d-0b25-4015-9575-af89efef2095|15=NOK|21=1|22=4|38=4700|40=1|48=NO0010063308|54=2|55=NO0010063308_symbol|59=0|60=20140729-14:47:23.740|100=OL|6171=0|6350=1|7400=20140729-07:24:02.740|7401=20140729-09:30:00.740|7803=0|10=215|
8=FIX.4.2|9=239|35=D|34=26|49=CLIENT|52=20140729-14:47:23.744|56=PELYNCH|11=c18596a2-6bb1-4405-9cba-cc64703f3a31|15=EUR|21=1|22=4|38=19069|40=1|48=DE0006070006|54=2|55=DE0006070006_symbol|59=0|60=20140729-14:47:23.742|100=DE|6064=27|6067=23|6171=0|7803=1|10=090|
